:04000000FEEF1FF000
:1002000000001218092124060000026E0250070B9C
:10021000036E0740E842C00BC00B046E072A010EB4
:10022000056E0350010F016E01C0F6FF0800F55086
:100230000009D8A41EEF01F020EF01F029EF01F032
:100240000450D8A426EF01F028EF01F029EF01F0C7
:10025000056A05C08BFF07C093FF120041EC01F057
:1002600080CF06F0065005EC01F030EF01F0FEEF14
:100270001FF0076A000EF86E020EF76E00012EEFF7
:0A02800001F09268936A946A12007C
:043FFC0039EF01F0A8
:020000040020DA
:08000000FFFFFFFFFFFFFFFF00
:020000040030CA
:0E000000FF271F1FFF8885FF03C003E003409A
:00000001FF
