:040000003BEF01F0E1
:1002000000001218092124060000016E0150070B9E
:10021000026E0640E842C00BC00B036E062A010EB8
:10022000046E010E0224F66EF76A020EF722080031
:10023000F5500009D8A41FEF01F021EF01F02BEFDA
:1002400001F00350D8A427EF01F029EF01F02BEFC4
:1002500001F0000E046E04C08BFF06C093FF120075
:1002600043EC01F080CF05F0055005EC01F032EFD2
:1002700001F000EF00F0066A000EF86E020EF76E55
:10028000000130EF01F09268000E936E000E946E44
:0202900012005A
:020000040020DA
:08000000FFFFFFFFFFFFFFFF00
:020000040030CA
:0E000000FF271F1FFF8885FF03C003E003409A
:00000001FF
